{
  "contractName": "ForeToken",
  "abi": [
    {
      "constant": true,
      "inputs": [],
      "name": "totalSupply",
      "outputs": [
        {
          "name": "",
          "type": "uint256"
        }
      ],
      "payable": false,
      "stateMutability": "view",
      "type": "function"
    },
    {
      "inputs": [],
      "payable": false,
      "stateMutability": "nonpayable",
      "type": "constructor"
    }
  ],
  "bytecode": "0x6080604052348015600f57600080fd5b5062989680600081905550607b806100286000396000f3fe6080604052348015600f57600080fd5b506004361060285760003560e01c806318160ddd14602d575b600080fd5b60336049565b6040518082815260200191505060405180910390f35b6000548156fea165627a7a723058203e6cc2c7fb3d6986c445c68481d327afb5a1c953872f8a8407f97252f34d44a30029",
  "source": "pragma solidity ^0.5.0;\n\ncontract ForeToken {\n    // Constructor\n    // Set the total number of tokens\n    // Read the total number of tokens\n    uint256 public totalSupply;\n    constructor () public {\n        totalSupply = 10000000;\n    }\n}\n",
  "sourcePath": "/Users/diegosolano/Desktop/Barlon/ForeCoin/contracts/ForeToken.sol",
  "compiler": {
    "name": "solc",
    "version": "0.5.8+commit.23d335f2.Emscripten.clang"
  },
  "schemaVersion": "3.0.11",
  "updatedAt": "2019-06-28T01:44:28.979Z",
  "devdoc": {
    "methods": {}
  },
  "userdoc": {
    "methods": {}
  }
}